:02000000C22B11
:1000060083120313F8010830FC00700DF80D740814
:10001600F80203181028F8070310F00DFC0B082847
:020026000800D0
:10002800831203130817380886001A30FC00F830CA
:10003800FD00FD0B1D28FC0B1D2800000813881768
:10004800C83086001A30FC00F830FD00FD0B2A2865
:0A005800FC0B2A28000088130800A2
:10006200831203130910891009151420081088142B
:0800720008158811362808006A
:10007A00831603178C1C432800003D2883120313A0
:10008A004F0803178D000313500803178C008316BB
:10009A008C130C150B08F0008B1355308D00AA3009
:1000AA008D008C14F01B5B288B135C288B170C11AA
:0200BA0008003C
:1000BC000A3083120313A8002808003C03189F2859
:1000CC000A30F4002808F00003207808F0007008CB
:1000DC00A9000A30F4002808F00003207008AB00D7
:1000EC00AA0132302A0203189D2808162B08383E24
:1000FC008400000886001A30FC00F830FD00FD0B6F
:10010C008528FC0B85280000081288162908383E23
:10011C008400000886001A30FC00F830FD00FD0B4E
:10012C009528FC0B952800008812AA0A7728A803AA
:10013C0062280130A800963028020318C02827082E
:10014C00013A031DAD2808148810081588152708D6
:10015C00023A031DB52808148814081188112708C1
:10016C00033A031DBD2808108814081188151420A3
:06017C00A80AA1280800FA
:0E0182008312031347088A0046088200080013
:100190008312031308164B08383E840000088600BB
:1001A0001A30FC00F830FD00FD0BD428FC0BD428DD
:1001B0000000081288164C08383E840000088600AB
:1001C0001A30FC00F830FD00FD0BE428FC0BE4289D
:1001D0000000881208174D08383E84000008860089
:1001E0001A30FC00F830FD00FD0BF428FC0BF4285D
:1001F0000000081388174E08383E84000008860067
:100200001A30FC00F830FD00FD0B0429FC0B04291A
:0602100000008813080045
:10021600831203134B0803178D0083168C130C14DB
:0802260083120C08F00008002F
:10022E008312031323082006031D322924082106F6
:10023E00031D322926082206031D32290030A51B74
:10024E00FF30F00000307006031D2F2931082506FF
:10025E00031D322937292708013A03193729402966
:10026E000130A7000230CF000130D0003D205E20CB
:10027E00852923082E06031D592924082F06031D40
:10028E00592926083006031D59290030A51BFF30B9
:10029E00F00000307006031D562932082506031D96
:1002AE0059295E292708023A03195E296729023067
:1002BE00A7000230CF000230D0003D205E208529FD
:1002CE0023083406031D812924083506031D8129C0
:1002DE0026083606031D812925083706031D8129A8
:1002EE000330A7000230CF000330D0003D205E2047
:0E02FE00312085290810881008118811080089
:10030C0083120313071CA6290230FB000430FC00E7
:10031C00BA30FD00FD0B9029FC0B9029FB0B9029AA
:10032C000000071CA629CB0A0319CC0A00304C0686
:10033C00031DA2290A304B06031DA629CB01CC01B3
:0A034C004B08F0004C08F100080017
:1003560083120313081088140815881183120313D7
:100366002708013A0319BC292708023A0319BC29B0
:100376008D2A2D08C2000A30F4002D08F000032053
:100386007808F0007008CA004A08C3000A30F40072
:100396002D08F00003207008C9004908C2000A3081
:1003A600F4004908F00003207808F0007008C8003F
:1003B6004808C5000A30F4004908F0000320700818
:1003C600C2000A30F40003207808F0007008C40068
:1003D600CB017008CC004808CD004A08CE00C820E2
:1003E6002D08003A031D3E2A2708013A031D022A5A
:1003F6006330B1001130CF006330D0003D2083124E
:1004060003132708023A031D0F2A6330B200223075
:10041600CF006330D0003D2083120313A7010230C2
:10042600CF00D0013D20783083120313AD00063093
:10043600AC002430CF007830D0003D2060308312ED
:100446000313CF002C08D0003D2083120313A5010F
:10045600A601A401A3010B30FB002630FC005D3091
:10046600FD00FD0B342AFC0B342AFB0B342A00005A
:10047600000017218D2A0130A8002808033C031C20
:10048600692A0914CB014408CC004508CD0043086D
:10049600CE00C8201A30FC00F830FD00FD0B512AB2
:1004A600FC0B512A0000CB014408CC004508CD00C6
:1004B6004308CE00C8201A30FC00F830FD00FD0BC2
:1004C600622AFC0B622A0000A80A402A2C08003C7B
:1004D60003186E2AAC036030CF002C08D0003D20F4
:1004E600831203132C08003A031D8C2A2D08003CA6
:1004F60003187E2AAD030630AC006030CF0006300C
:10050600D0003D20243083120313CF002D08D000E5
:060516003D20B1290800A0
:10051C0083120313871CA72A0230FB000430FC0053
:10052C00BA30FD00FD0B982AFC0B982AFB0B982A7D
:10053C000000871CA72AB30A3308043A031DA72A14
:10054C00B301042B08167F3086001A30FC00F830FB
:10055C00FD00FD0BAF2AFC0BAF2A0000081223088C
:10056C00CB000030CB1BFF30CC0086217008A300E1
:10057C00142B88167F3086001A30FC00F830FD00F2
:10058C00FD0BC62AFC0BC62A000088122408CB00DF
:10059C000030CB1BFF30CC0086217008A400142B3C
:1005AC0008177F3086001A30FC00F830FD00FD0B78
:1005BC00DD2AFC0BDD2A000008132608CB000030D6
:1005CC00CB1BFF30CC0086217008A600142B88179B
:1005DC007F3086001A30FC00F830FD00FD0BF42A49
:1005EC00FC0BF42A000088132508CB000030CB1B31
:1005FC00FF30CC0086217008A500142B3308003A7C
:10060C000319A82A3308013A0319BF2A3308023AFE
:0E061C000319D62A3308033A0319ED2A080001
:10062A00C1208A110A128000840AC60A0319C70A5D
:08063A00F003031D152B08005D
:10064200243083120313CB000B217008FF3A031DE1
:10065200312B24300313CF002D08D0003D20392B3D
:10066200243083120313CB000B2170080313AD0057
:100672004E30FC00EB30FD0083120313FD0B3D2BCB
:10068200FC0B3D2B6030CB000B217008FF3A031DA1
:10069200512B60300313CF002C08D0003D20592B82
:1006A200603083120313CB000B2170080313AC00DC
:1006B2004E30FC00EB30FD0083120313FD0B5D2B6B
:1006C200FC0B5D2B0230CB000B217008FF3A031D9F
:1006D200712B02300313CF002708D0003D20792B65
:1006E200023083120313CB000B2170080313A700FF
:1006F2004E30FC00EB30FD0083120313FD0B7D2B0B
:10070200FC0B7D2B1130CB000B217008FF3A031D2F
:10071200912B11300313CF003108D0003D20992BCB
:10072200113083120313CB000B2170080313B100A5
:100732004E30FC00EB30FD0083120313FD0B9D2BAA
:10074200FC0B9D2B2230CB000B217008FF3A031DBE
:10075200B12B22300313CF003208D0003D20B92B39
:10076200223083120313CB000B2170080313B20053
:100772004E30FC00EB30FD00FD0BBD2BFC0BBD2B06
:0207820008006D
:10078400013083120313A0000330A100A201A301CE
:10079400A401A501A601A701A801A901AA0101308C
:1007A400AB000630AC007830AD000830AE00093044
:1007B400AF000230B0000230B100B201B301043026
:1007C400B4000730B5000430B6000530B700C030BF
:1007D400B800F930B900A430BA00B030BB00993089
:1007E400BC009230BD008230BE00F830BF008030C3
:1007F400C0009030C10083168601FF308700880155
:10080400890183128601880189012123831203133C
:100814002708013A0319132C2708023A0319132C49
:10082400152C5E20AB21831203132708033A031D02
:100834001D2C5E2031208E221721AB21831203133D
:100844002308CB002408CC002608CD002508CE00C0
:08085400C82089141D2C2D2C75
:00000001FF
